:100000000C945D080C9485080C9485080C94850864
:100010000C9485080C9485080C9485080C9485082C
:100020000C9485080C9485080C9485080C9485081C
:100030000C9485080C9485080C9485080C9485080C
:100040000C9427120C9485080C9497120C9471123E
:100050000C9485080C9485080C9485080C948508EC
:100060000C9485080C9485080D000F001D001C00E1
:1000700001000401E800F70000001C001E001B0046
:1000800002000301E900040101001B001F001A0027
:1000900003000201EA00030102001A002000190017
:1000A00004000101EB000201030019002100180007
:1000B00005000001EC0001010400180022001700F7
:1000C0000600FF00ED0000010500170023001600E8
:1000D0000700FE00EE00FF000600160024001500D9
:1000E0000800FD00EF00FE000700150025001400C9
:1000F0000900FC00F000FD000800140026001300B9
:100100000A00FB00F100FC000900130027001200A8
:100110000B00FA00F200FB000A0012002800110098
:100120000C00F900F300FA000B0011002900100088
:100130000D00F800F400F9000C0010002A000F0078
:100140000E00F700F500F8000D000F002B001B005B
:1001500000000301F600F70010002A002C002B001D
:100160000E000E00F7000D00110029002D002A00DE
:100170000F000D00F8000C00120028002E002900CE
:1001800010000C00F9000B00130027002F002800BE
:1001900011000B00FA000A001400260030002700AE
:1001A00012000A00FB00090015002500310026009E
:1001B00013000900FC00080016002400320025008E
:1001C00014000800FD00070017002300330024007E
:1001D00015000700FE00060018002200340023006E
:1001E00016000600FF00050019002100350022005E
:1001F00017000500000104001A002000360021004D
:1002000018000400010103001B001F00370020003C
:1002100019000300020102001C001E0038001F002C
:100220001A000200030101001D001D0039001E001C
:100230001B000100040100002A002C003A003900D4
:100240001E001C0000000F001D0039003B0038009C
:100250001F001B0001001C001E0038003C0037007E
:1002600020001A0002001B001F0037003D0036006E
:100270002100190003001A00200036003E0035005E
:100280002200180004001900210035003F0034004E
:10029000230017000500180022003400400033003E
:1002A000240016000600170023003300410032002E
:1002B000250015000700160024003200420031001E
:1002C000260014000800150025003100430030000E
:1002D00027001300090014002600300044002F00FE
:1002E000280012000A00130027002F0045002E00EE
:1002F000290011000B00120028002E0046002D00DE
:100300002A0010000C00110029002D0047002C00CD
:100310002B000F000D0010002A002C0048003800B0
:100320001D001B000E000F002D0047004900480073
:100330002B002B000F002A002E0046004A00470029
:100340002C002A00100029002F0045004B00460019
:100350002D00290011002800300044004C00450009
:100360002E00280012002700310043004D004400F9
:100370002F00270013002600320042004E004300E9
:100380003000260014002500330041004F004200D9
:1003900031002500150024003400400050004100C9
:1003A000320024001600230035003F0051004000B9
:1003B000330023001700220036003E0052003F00A9
:1003C000340022001800210037003D0053003E0099
:1003D000350021001900200038003C0054003D0089
:1003E000360020001A001F0039003B0055003C0079
:1003F00037001F001B001E003A003A0056003B0069
:1004000038001E001C001D00470049005700560020
:100410003B0039001D002C003A00560058005500E2
:100420003C0038001E0039003B00550059005400C4
:100430003D0037001F0038003C0054005A005300B4
:100440003E003600200037003D0053005B005200A4
:100450003F003500210036003E0052005C00510094
:1004600040003400220035003F0051005D00500084
:100470004100330023003400400050005E004F0074
:10048000420032002400330041004F005F004E0064
:10049000430031002500320042004E0060004D0054
:1004A000440030002600310043004D0061004C0044
:1004B00045002F002700300044004C0062004B0034
:1004C00046002E0028002F0045004B0063004A0024
:1004D00047002D0029002E0046004A006400490014
:1004E00048002C002A002D004700490065005500F7
:1004F0003A0038002B002C004A00640066006500BA
:10050000480048002C0047004B006300670064006F
:10051000490047002D0046004C006200680063005F
:100520004A0046002E0045004D006100690062004F
:100530004B0045002F0044004E0060006A0061003F
:100540004C004400300043004F005F006B0060002F
:100550004D0043003100420050005E006C005F001F
:100560004E0042003200410051005D006D005E000F
:100570004F0041003300400052005C006E005D00FF
:100580005000400034003F0053005B006F005C00EF
:1005900051003F0035003E0054005A0070005B00DF
:1005A00052003E0036003D005500590071005A00CF
:1005B00053003D0037003C005600580072005900BF
:1005C00054003C0038003B005700570073005800AF
:1005D00055003B0039003A00640066007400730067
:1005E000580056003A004900570073007500720029
:1005F000590055003B00560058007200760071000B
:100600005A0054003C0055005900710077007000FA
:100610005B0053003D0054005A00700078006F00EA
:100620005C0052003E0053005B006F0079006E00DA
:100630005D0051003F0052005C006E007A006D00CA
:100640005E005000400051005D006D007B006C00BA
:100650005F004F00410050005E006C007C006B00AA
:1006600060004E0042004F005F006B007D006A009A
:1006700061004D0043004E0060006A007E0069008A
:1006800062004C0044004D00610069007F0068007A
:1006900063004B0045004C0062006800800067006A
:1006A00064004A0046004B0063006700810066005A
:1006B0006500490047004A0064006600820072003D
:1006C0005700550048004900670081008300820000
:1006D00065006500490064006800800084008100B6
:1006E000660064004A00630069007F0085008000A6
:1006F000670063004B0062006A007E0086007F0096
:10070000680062004C0061006B007D0087007E0085
:10071000690061004D0060006C007C0088007D0075
:100720006A0060004E005F006D007B0089007C0065
:100730006B005F004F005E006E007A008A007B0055
:100740006C005E0050005D006F0079008B007A0045
:100750006D005D0051005C00700078008C00790035
:100760006E005C0052005B00710077008D00780025
:100770006F005B0053005A00720076008E00770015
:1007800070005A0054005900730075008F00760005
:1007900071005900550058007400740090007500F5
:1007A00072005800560057008100830091009000AD
:1007B00075007300570066007400900092008F006F
:1007C000760072005800730075008F0093008E0051
:1007D000770071005900720076008E0094008D0041
:1007E000780070005A00710077008D0095008C0031
:1007F00079006F005B00700078008C0096008B0021
:100800007A006E005C006F0079008B0097008A0010
:100810007B006D005D006E007A008A009800890000
:100820007C006C005E006D007B00890099008800F0
:100830007D006B005F006C007C0088009A008700E0
:100840007E006A0060006B007D0087009B008600D0
:100850007F00690061006A007E0086009C008500C0
:1008600080006800620069007F0085009D008400B0
:100870008100670063006800800084009E008300A0
:100880008200660064006700810083009F008F0083
:10089000740072006500660084009E00A0009F0046
:1008A000820082006600810085009D00A1009E00FC
:1008B000830081006700800086009C00A2009D00EC
:1008C0008400800068007F0087009B00A3009C00DC
:1008D00085007F0069007E0088009A00A4009B00CC
:1008E00086007E006A007D0089009900A5009A00BC
:1008F00087007D006B007C008A009800A6009900AC
:1009000088007C006C007B008B009700A70098009B
:1009100089007B006D007A008C009600A80097008B
:100920008A007A006E0079008D009500A90096007B
:100930008B0079006F0078008E009400AA0095006B
:100940008C007800700077008F009300AB0094005B
:100950008D0077007100760090009200AC0093004B
:100960008E0076007200750091009100AD0092003B
:100970008F007500730074009E00A000AE00AD00F3
:1009800092009000740083009100AD00AF00AC00B5
:1009900093008F00750090009200AC00B000AB0097
:1009A00094008E0076008F009300AB00B100AA0087
:1009B00095008D0077008E009400AA00B200A90077
:1009C00096008C0078008D009500A900B300A80067
:1009D00097008B0079008C009600A800B400A70057
:1009E00098008A007A008B009700A700B500A60047
:1009F000990089007B008A009800A600B600A50037
:100A00009A0088007C0089009900A500B700A40026
:100A10009B0087007D0088009A00A400B800A30016
:100A20009C0086007E0087009B00A300B900A20006
:100A30009D0085007F0086009C00A200BA00A100F6
:100A40009E008400800085009D00A100BB00A000E6
:100A50009F008300810084009E00A000BC00AC00C9
:100A600091008F0082008300A100BB00BD00BC008C
:100A70009F009F0083009E00A200BA00BE00BB0042
:100A8000A0009E0084009D00A300B900BF00BA0032
:100A9000A1009D0085009C00A400B800C000B90022
:100AA000A2009C0086009B00A500B700C100B80012
:100AB000A3009B0087009A00A600B600C200B70002
:100AC000A4009A0088009900A700B500C300B600F2
:100AD000A500990089009800A800B400C400B500E2
:100AE000A60098008A009700A900B300C500B400D2
:100AF000A70097008B009600AA00B200C600B300C2
:100B0000A80096008C009500AB00B100C700B200B1
:100B1000A90095008D009400AC00B000C800B100A1
:100B2000AA0094008E009300AD00AF00C900B00091
:100B3000AB0093008F009200AE00AE00CA00AF0081
:100B4000AC00920090009100BB00BD00CB00CA0039
:100B5000AF00AD009100A000AE00CA00CC00C900FB
:100B6000B000AC009200AD00AF00C900CD00C800DD
:100B7000B100AB009300AC00B000C800CE00C700CD
:100B8000B200AA009400AB00B100C700CF00C600BD
:100B9000B300A9009500AA00B200C600D000C500AD
:100BA000B400A8009600A900B300C500D100C4009D
:100BB000B500A7009700A800B400C400D200C3008D
:100BC000B600A6009800A700B500C300D300C2007D
:100BD000B700A5009900A600B600C200D400C1006D
:100BE000B800A4009A00A500B700C100D500C0005D
:100BF000B900A3009B00A400B800C000D600BF004D
:100C0000BA00A2009C00A300B900BF00D700BE003C
:100C1000BB00A1009D00A200BA00BE00D800BD002C
:100C2000BC00A0009E00A100BB00BD00D900C9000F
:100C3000AE00AC009F00A000BE00D800DA00D900D2
:100C4000BC00BC00A000BB00BF00D700DB00D80088
:100C5000BD00BB00A100BA00C000D600DC00D70078
:100C6000BE00BA00A200B900C100D500DD00D60068
:100C7000BF00B900A300B800C200D400DE00D50058
:100C8000C000B800A400B700C300D300DF00D40048
:100C9000C100B700A500B600C400D200E000D30038
:100CA000C200B600A600B500C500D100E100D20028
:100CB000C300B500A700B400C600D000E200D10018
:100CC000C400B400A800B300C700CF00E300D00008
:100CD000C500B300A900B200C800CE00E400CF00F8
:100CE000C600B200AA00B100C900CD00E500CE00E8
:100CF000C700B100AB00B000CA00CC00E600CD00D8
:100D0000C800B000AC00AF00CB00CB00E700CC00C7
:100D1000C900AF00AD00AE00D800DA00E800E7007F
:100D2000CC00CA00AE00BD00CB00E700E900E60041
:100D3000CD00C900AF00CA00CC00E600EA00E50023
:100D4000CE00C800B000C900CD00E500EB00E40013
:100D5000CF00C700B100C800CE00E400EC00E30003
:100D6000D000C600B200C700CF00E300ED00E200F3
:100D7000D100C500B300C600D000E200EE00E100E3
:100D8000D200C400B400C500D100E100EF00E000D3
:100D9000D300C300B500C400D200E000F000DF00C3
:100DA000D400C200B600C300D300DF00F100DE00B3
:100DB000D500C100B700C200D400DE00F200DD00A3
:100DC000D600C000B800C100D500DD00F300DC0093
:100DD000D700BF00B900C000D600DC00F400DB0083
:100DE000D800BE00BA00BF00D700DB00F500DA0073
:100DF000D900BD00BB00BE00D800DA00F600E60056
:100E0000CB00C900BC00BD00DB00F500F700F60018
:100E1000D900D900BD00D800DC00F400F800F500CE
:100E2000DA00D800BE00D700DD00F300F900F400BE
:100E3000DB00D700BF00D600DE00F200FA00F300AE
:100E4000DC00D600C000D500DF00F100FB00F2009E
:100E5000DD00D500C100D400E000F000FC00F1008E
:100E6000DE00D400C200D300E100EF00FD00F0007E
:100E7000DF00D300C300D200E200EE00FE00EF006E
:100E8000E000D200C400D100E300ED00FF00EE005E
:100E9000E100D100C500D000E400EC000001ED004D
:100EA000E200D000C600CF00E500EB000101EC003D
:100EB000E300CF00C700CE00E600EA000201EB002D
:100EC000E400CE00C800CD00E700E9000301EA001D
:100ED000E500CD00C900CC00E800E8000401E9000D
:100EE000E600CC00CA00CB00F500F70000000401CA
:100EF000E900E700CB00DA00E8000401010003018B
:100F0000EA00E600CC00E700E9000301020002016C
:100F1000EB00E500CD00E600EA000201030001015C
:100F2000EC00E400CE00E500EB000101040000014C
:100F3000ED00E300CF00E400EC0000010500FF003D
:100F4000EE00E200D000E300ED00FF000600FE002E
:100F5000EF00E100D100E200EE00FE000700FD001E
:100F6000F000E000D200E100EF00FD000800FC000E
:100F7000F100DF00D300E000F000FC000900FB00FE
:100F8000F200DE00D400DF00F100FB000A00FA00EE
:100F9000F300DD00D500DE00F200FA000B00F900DE
:100FA000F400DC00D600DD00F300F9000C00F800CE
:100FB000F500DB00D700DC00F400F8000D00F700BE
:100FC000F600DA00D800DB00F500F7000E000301A0
:100FD000E800E600D900DA00F8000D000F000E006E
:100FE000F600F600DA00F500F9000C0010000D0024
:100FF000F700F500DB00F400FA000B0011000C0014
:10100000F800F400DC00F300FB000A0012000B0003
:10101000F900F300DD00F200FC00090013000A00F3
:10102000FA00F200DE00F100FD00080014000900E3
:10103000FB00F100DF00F000FE00070015000800D3
:10104000FC00F000E000EF00FF00060016000700C3
:10105000FD00EF00E100EE000001050017000600B2
:10106000FE00EE00E200ED000101040018000500A2
:10107000FF00ED00E300EC00020103001900040092
:101080000001EC00E400EB00030102001A00030081
:101090000101EB00E500EA00040101001B00020071
:1010A0000201EA00E600E900000000001C00010067
:1010B0000301E900E700E800C91211241FBECFEFC9
:1010C000D8E0DEBFCDBF11E0A0E0B1E0E8EBF9E28F
:1010D00002C005900D92A237B107D9F727E0A2E729
:1010E000B1E001C01D92AE39B207E1F718E0CDE5DD
:1010F000D8E004C02197FE010E94CF14CC35D1075F
:10110000C9F70E9452130C94DA140C940000FC01ED
:10111000538D448D252F30E0842F90E0821B930B5C
:10112000541710F0CF96089501970895FC01918D02
:10113000828D981761F0828DDF01A80FB11D5D9639
:101140008C91928D9F5F9F73928F90E008958FEFA7
:101150009FEF0895FC01918D828D981731F0828D5B
:10116000E80FF11D858D90E008958FEF9FEF0895B2
:10117000FC01918D228D892F90E0805C9F4F821B16
:1011800091098F739927089580E090E0892B29F0C9
:101190000E94420F81110C9400000895DC01FB01B4
:1011A0004C9111965C91119712967C91342F3F715E
:1011B000330F330F832F880F35E5282F239F020E1F
:1011C00020E0211D1124642F6074942F907247FD3C
:1011D00021C061110BC0911104C0822F8095422F54
:1011E00011C045E5420F30E02BEA33C091110DC02C
:1011F000382F4AEA349F030E30E0311D11248BEA68
:10120000831B420F282F30E024C080E0422F4095FE
:10121000322F0EC0611111C091110CC0382F2AEA73
:10122000329F030E30E0311D11244BEA431B3B5A21
:1012300020E00FC0322F30950BC0911104C085E51E
:10124000820F3BEA03C08AEA820F90E0321B282F0C
:1012500040E05F3F11F15523E9F0222321F0259F63
:10126000020E20E0211D442321F0459F040E40E0A2
:10127000411D332321F0359F030E30E0311D112431
:101280005095559F050E50E0511D1124250F450F17
:10129000350F03C03FEF4FEF2FEF7F3F09F420C022
:1012A00050E0772321F0779F512D09F05F5F5523A0
:1012B000A1F0222321F0259F020E20E0211D4423CE
:1012C00021F0459F040E40E0411D332321F0359F5E
:1012D000030E30E0311D112403C030E040E020E077
:1012E0002083418332830895CF92DF92EF92FF9261
:1012F0000F931F93CF93DF9300D000D0CDB7DEB70D
:101300006B0149833FEF3B8330EF3A837C0100E080
:1013100010E00C151D0584F4B701CE0101962C8355
:101320000E94CE0889812C81820F89830F5F1F4F15
:1013300083E0E80EF11CEDCF0F900F900F900F900F
:10134000DF91CF911F910F91FF90EF90DF90CF90A1
:101350000895EF92FF920F931F93CF93DF93EC01C9
:10136000909180039F5F292F27702093800390FF27
:1013700002C090E801C090E021FD9064247009F063
:10138000906220E1290FFE013C967E018FE0E80E7D
:10139000F11C00E011E06191662331F070E0C801BA
:1013A0000E94A0146F5F01C060E0DF0114976C938E
:1013B000322F369F030E30E0311D1124CF010797E5
:1013C000311103C0EC01188203C03150EC013883A5
:1013D000662311F061506C93EE15FF05E1F6DF9185
:1013E000CF911F910F91FF90EF90089580E991E0C8
:1013F0000895569A08950F931F93CF93DF93CDB717
:10140000DEB762970FB6F894DEBF0FBECDBF8C017A
:10141000F901DC011C968C917A8369835C834B8390
:101420005E834D8390819D8791819E8792819F8766
:10143000813029F4CE0101960E94A90906C01C86BC
:101440001B861A86198618861F8283E0888B1A8A63
:10145000198AD801ED91FC910484F585E02DBE0137
:101460006F5F7F4FC801099562960FB6F894DEBF93
:101470000FBECDBFDF91CF911F910F9108950F93B4
:101480001F93CF93DF93CDB7DEB762970FB6F89473
:10149000DEBF0FBECDBF8C01F901DC011C968C9123
:1014A0007A8369835C834B835E834D8390819D87C0
:1014B00091819E8792819F87813029F4CE01019688
:1014C0000E94A90906C01C861B861A8619861886E2
:1014D0001F82188A1A8A198AD801ED91FC91048416
:1014E000F585E02DBE016F5F7F4FC80109956296BB
:1014F0000FB6F894DEBF0FBECDBFDF91CF911F9125
:101500000F9108950895089580E090E00895FC01FA
:10151000858596850895CF93DF9300D000D000D0C5
:10152000CDB7DEB7AB011C821D821E82DC01ED91BE
:10153000FC910190F081E02D19821A821B829E019C
:101540002F5F3F4FBE016C5F7F4F099526960FB608
:10155000F894DEBF0FBECDBFDF91CF9108950F93FA
:101560001F93CF93DF930E94FF1024E630E040E00A
:1015700050E00E945F14CA01B9012FEF30E040E053
:1015800050E00E945F14162FCFE2D4E006E4060F6D
:1015900025E0412F6FE070E0CE010E9474092BEF2F
:1015A000402F6EE070E0CE018D960E947409C95AFA
:1015B000DF4F87E0CE33D80759F780912204DF91BF
:1015C000CF911F910F910C940B114F925F926F92DC
:1015D0007F928F92AF92BF92CF92EF92FF920F9332
:1015E0001F93CF93DF933C01EB010E94DA10F301CC
:1015F00027853089621B730B6A307105B0F3F8944C
:10160000E881F9815BB150648BB18F7B8BB96A85BE
:101610009F81262F291B922F2F83BF844A805B80B6
:101620007D85FC84EE847F5FF394E3943E8148855E
:10163000A984CB841181D20120E0C32F022F322F45
:101640003181112788943111390F08F43FEF9195BA
:10165000889470FD130F1795889471FD130F1795DB
:10166000889472FD130F1795889473FD130F1795C7
:10167000889474FD130F1795889475FD130F1795B3
:10168000889476FD130F1795889477FD130F17959F
:101690008894232F7111212F960F122F002C5BB9E4
:1016A00000C017FF8BB930812227889400C000C08A
:1016B000002C8BB931113C0F00C0002C5BB900C06D
:1016C00016FF8BB908F43FEFC195889400C000C0A5
:1016D000002C8BB9F0FC230F00C0002C5BB900C0BC
:1016E00015FF8BB927958894F1FC230F00C000C02B
:1016F000002C8BB92795889400C0002C5BB900C0E2
:1017000014FF8BB9F2FC230F2795889400C000C00A
:10171000002C8BB9F3FC230F00C0002C5BB900C078
:1017200013FF8BB927958894F4FC230F00C000C0E9
:10173000002C8BB92795889400C0002C5BB900C0A1
:1017400012FF8BB9F5FC230F2795889400C000C0C9
:10175000002C8BB9F6FC230F00C0002C5BB900C035
:1017600011FF8BB927958894F7FC230F00C000C0A8
:10177000002C8BB92795889400C0002C5BB900C061
:1017800010FF8BB9132FF110122FCA0D00C000C02B
:10179000002C8BB900C000C0002C5BB900C017FF43
:1017A0008BB932812227889400C000C0002C8BB9ED
:1017B0003111340F00C0002C5BB900C016FF8BB98B
:1017C00008F43FEFEB0DF11D00C000C0002C8BB9F9
:1017D000E0FC230F00C0002C5BB900C015FF8BB9E3
:1017E00027958894E1FC230F00C000C0002C8BB922
:1017F0002795889400C0002C5BB900C014FF8BB9FA
:10180000E2FC230F2795889400C000C0002C8BB900
:10181000E3FC230F00C0002C5BB900C013FF8BB9A1
:1018200027958894E4FC230F00C000C0002C8BB9DE
:101830002795889400C0002C5BB900C012FF8BB9BB
:10184000E5FC230F2795889400C000C0002C8BB9BD
:10185000E6FC230F00C0002C5BB900C011FF8BB960
:1018600027958894E7FC230F00C000C0002C8BB99B
:101870002795889400C0002C5BB900C010FF8BB97D
:10188000132FE110122F419500C000C0002C8BB91E
:101890004C0D00C000C05BB900C017FF8BB931818F
:1018A0002227889400C000C0002C8BB93111390F59
:1018B00000C0002C5BB900C016FF8BB908F43FEFE5
:1018C0009195889400C000C0002C8BB970FD230F47
:1018D00000C0002C5BB900C015FF8BB92795889418
:1018E00071FD230F00C000C0002C8BB92795889490
:1018F00000C0002C5BB900C014FF8BB972FD230F30
:101900002795889400C000C0002C8BB973FD230F6D
:1019100000C0002C5BB900C013FF8BB927958894D9
:1019200074FD230F00C000C0002C8BB9279588944C
:1019300000C0002C5BB900C012FF8BB975FD230FEE
:101940002795889400C000C0002C8BB976FD230F2A
:1019500000C0002C5BB900C011FF8BB9279588949B
:1019600077FD230F00C000C0002C8BB92795889409
:1019700000C0002C5BB900C010FF8BB9132F711190
:10198000122F960F00C000C0002C8BB9119709F0E0
:1019900086CE20EE31E0D2010E94B414DC01CB01EE
:1019A000F4E0B695A79597958795FA95D1F720E03D
:1019B00030E0A9016AE9469E040C411D569E400D87
:1019C000511D1124450D511D840F951FA11DB11DE1
:1019D000893E43E09407A105B10508F434C0885E50
:1019E0009340A109B10942E0B695A79597958795CF
:1019F0004A95D1F747E0849F080E211D949F200D42
:101A0000311D1124290F311D60917F0370E0860F75
:101A1000971F820F931F4091810350918203609121
:101A2000830370918403292F3327420F531F611DB5
:101A3000711D4093810350938203609383037093DD
:101A4000840380937F0378940E94DA10F301708BF3
:101A50006787DF91CF911F910F91FF90EF90CF900B
:101A6000BF90AF908F907F906F905F904F90089550
:101A70006F927F928F929F92AF92BF92CF92DF929E
:101A8000EF92FF920F931F93CF93DF930E94FF106B
:101A90006B017C01EFE2F4E0A1E3B4E035EF2081DB
:101AA000239F020E20E0211D2083ED012A91239F18
:101AB000020E20E0211D28832C91239F020E20E09E
:101AC000211D2C9311243396139687E0EE33F807EB
:101AD00031F780E691E00E94B70F0E94FF106C1969
:101AE0007D098E099F094AE00E94C90F86E691E0B0
:101AF0000E94B70F0E94FF104B015C0106E417E043
:101B0000CEE3D7E072E3672E712CE5E0EE2EE8E03D
:101B1000FE2ED801EC91F0E02A813B81E217F30719
:101B20000CF443C0E0917E0380910001909101018B
:101B30008E9D90018F9D300D9E9D300D1124C90109
:101B4000875E994C9093010180930001890F8E9FCD
:101B5000F00111248F2F9927E0917C03F0917D03F0
:101B6000E80FF91FC080D12CC6010E940A102881FD
:101B70003981F901EE0FFF1FEE58FE4F8C819D81D8
:101B800091838083F90153E0EE0FFF1F5A95E1F72F
:101B9000EC0DFD1DEE0FFF1FE859FF4F859194914D
:101BA00099838883F801108214C04C815D81249F41
:101BB000C001259F900D349F900D1124B3010E9408
:101BC000A014E60FF71F2E173F070CF4F901D801F8
:101BD000EC9368817981CB01880F991F680F791F79
:101BE000615D7B4FCE0106960E94CE08075F1F4FB6
:101BF0002996B7E0CB36DB0709F08BCF89E691E079
:101C00000E94B70F0E94FF10681979098A099B0981
:101C10004AE00E94C90F86E691E00E94B70F8091CA
:101C20002204DF91CF911F910F91FF90EF90DF90F1
:101C3000CF90BF90AF909F908F907F906F900C94BB
:101C40000B11FC01848DDF01A80FB11DA35ABF4FFA
:101C50002C91848D90E001968F739927848FA689AB
:101C6000B7892C93A089B1898C9180648C93938DD2
:101C7000848D981306C00288F389E02D80818F7DC2
:101C800080830895CF93DF93EC010E941F1424E01A
:101C900031E040E050E00E942D14798368830E9477
:101CA0001F142DEC30E040E050E00E942D14DC01C8
:101CB000CB01C296A11DB11D9B838A830E941F1474
:101CC0002FEF30E040E050E00E942D146E838FEF44
:101CD0008F831886DF91CF9108952F923F924F9274
:101CE0005F926F927F928F929F92AF92BF92CF92AC
:101CF000DF92EF92FF920F931F93CF93DF93CDB7B5
:101D0000DEB72B970FB6F894DEBF0FBECDBF6B01C9
:101D10004A0148E151E0FC015183408330937D0347
:101D200020937C0300937E030E9443108FEF8093E7
:101D300022040EE317E0212C312CCE0101969B8763
:101D40008A87092C000CAA08BB080D2C000CEE0891
:101D5000FF08240135014C185D086E087F08EA85EC
:101D6000FB8589E011928A95E9F7CE0101960E94E0
:101D7000420E89819A81F801918380838B819C81B5
:101D8000938382838D819E81958384838F81F101EA
:101D9000E25CF84F86838885878389858087D701B1
:101DA000C601C814D904EA04FB04ACF4411451047C
:101DB0006104710439F00E941F14A30192010E9472
:101DC0002D1403C060E070E0CB01DC01CB018C0D71
:101DD0009D1DAE1DBF1DF801958384830E940A10CE
:101DE000075F1F4FF9E02F0E311C8DE228163104DA
:101DF00009F0B5CF2B960FB6F894DEBF0FBECDBF5E
:101E0000DF91CF911F910F91FF90EF90DF90CF90D6
:101E1000BF90AF909F908F907F906F905F904F900A
:101E20003F902F900895CF92DF92EF92FF920F9301
:101E30001F93CF93DF936C017A018B01C0E0D0E058
:101E4000CE15DF0589F0D8016D918D01D601ED9198
:101E5000FC910190F081E02DC6010995892B11F4C8
:101E60007E0102C02196ECCFC701DF91CF911F9177
:101E70000F91FF90EF90DF90CF900895089580E04C
:101E800090E0089585E893E00E94B80821E0892B4E
:101E900009F420E0822F08950E94D514EF92FF925A
:101EA0000F931F93CF93DF93EC0181E0888F9B8D7D
:101EB0008C8D981305C0E889F989808185FD24C03F
:101EC000F62E0B8D10E00F5F1F4F0F731127E02EC2
:101ED0008C8DE8120CC00FB607FCFACFE889F9899F
:101EE000808185FFF5CFCE010E94210EF1CF8B8D31
:101EF000FE01E80FF11DE35AFF4FF0820B8FEA89D4
:101F0000FB898081806207C0EE89FF896083E88950
:101F1000F98980818064808381E090E0DF91CF91B6
:101F20001F910F91FF90EF900895CF93DF93EC01F5
:101F3000888D8823C9F0EA89FB89808185FD05C0E9
:101F4000A889B9898C9186FD0FC00FB607FCF5CF23
:101F5000808185FFF2CFA889B9898C9185FFEDCF6B
:101F6000CE010E94210EE7CFDF91CF910895009717
:101F700069F0FC0101900020E9F73197AF01481B9F
:101F8000590BBC0185E893E00C94130F80E090E0BE
:101F900008958F929F92AF92BF920F931F93CF930A
:101FA000DF93CDB7DEB7A1970FB6F894DEBF0FBEB3
:101FB000CDBF19A2423008F44AE08E010F5D1F4FD9
:101FC000842E912CA12CB12CA50194010E945F14A8
:101FD000E62FB901CA0101501109EA3014F4E05D9D
:101FE00001C0E95CD801EC93232B242B252B61F74E
:101FF000C8010E94B70FA1960FB6F894DEBF0FBEBE
:10200000CDBFDF91CF911F910F91BF90AF909F9067
:102010008F900895CF92DF92EF92FF92CF93DF934C
:102020006C01990FEE08FF08F7FE1AC0E0918503D6
:10203000F09186030190F081E02D6DE285E893E058
:102040000995EC0166277727CB016C197D098E096C
:102050009F094AE00E94C90F7C01EC0EFD1E06C0DC
:102060004AE0C701B6010E94C90F7C0186E691E0F3
:102070000E94B70F8E0D9F1DDF91CF91FF90EF90C3
:10208000DF90CF9008950F931F9380918407811163
:1020900045C010927607109275078FEF80937907ED
:1020A00080937A0780937B0780937C0780937D07DA
:1020B00080937E0781E080937F07109281071092C2
:1020C000800710927807109277078091920790917D
:1020D0009307892B31F483E797E0909393078093DC
:1020E0009207E0917107F0917207309721F083E732
:1020F00097E09583848383E797E0909372078093BA
:102100007107109283071092820780E391E0909309
:1021100074078093730781E080938407E0917307CD
:10212000F09174070480F581E02D83E797E009952D
:102130008FE294E0909376078093750785E091E0B5
:102140009093810780938007E0917307F091740763
:102150000284F385E02D83E797E00995009729F144
:102160009C0140E050E060E472E48FE090E00E9467
:102170002D14722F632F00912504109126042091B5
:10218000270430912804872F962FDA0180179107B2
:10219000A207B30710F4D901C801809325049093D6
:1021A0002604A0932704B093280483E797E01F91A7
:1021B0000F9108953FB7F89480916D0790916E0745
:1021C000A0916F07B091700726B5A89B05C02F3F5F
:1021D00019F00196A11DB11D3FBFBA2FA92F982F4D
:1021E0008827820F911DA11DB11DBC01CD0142E0C8
:1021F000660F771F881F991F4A95D1F708952FB74B
:10220000F89460918103709182038091830390918F
:1022100084032FBF08953F924F925F926F927F92F7
:102220008F929F92AF92BF92CF92DF92EF92FF92E6
:102230000F931F93CF93DF9300D01F92CDB7DEB7DC
:10224000F82E8091250490912604A0912704B09146
:102250002804892B8A2B8B2BE9F00E94DA1000913D
:102260009407109195072091960730919707DC010C
:10227000CB01801B910BA20BB30B00912504109195
:102280002604209127043091280480179107A20783
:10229000B307B8F20E94DA10609394077093950721
:1022A0008093960790939707E0912D04F0912E0468
:1022B000309759F04091290450912A0460912B04E1
:1022C00070912C048F2D0995F82E00919207109192
:1022D00093074F2C512C612C712C0115110509F419
:1022E00061C0D8011C96EC901C97809123049091BA
:1022F00024048436910510F41C961C92D801ED91AB
:10230000FC91A280B38019821A821B82F11014C042
:10231000F80145855685628173819E012F5F3F4F8D
:10232000C801F5010995D8011C96EC921C971496EA
:102330000D911C911597D1CFF8013996CE010196D8
:102340006C0148019CE0890E911CDF0113973C90C1
:102350002191332001F12223F1F0822F90E0A0E0BF
:10236000B0E09C01AD012F5F3F4F4F4F5F4FC30166
:10237000B2010E9490149B01AC01832D90E0A0E07B
:10238000B0E0BC01CD016F5F7F4F8F4F9F4F0E9428
:102390009014D6018C93BFEFCB1ADB0AE815F90530
:1023A000A1F6B6CF80919007909191078C010F5FB5
:1023B0001F4F109391070093900749979CF10E943B
:1023C000FF104B015C0188EE93E0089FB001099F6C
:1023D000700D189F700D1124072E000C880B990B9F
:1023E000C0908C07D0908D07E0908E07F0908F07FB
:1023F000A50194012C193D094E095F090E945F1443
:102400003093240420932304109291071092900794
:102410000E94FF1060938C0770938D0780938E0746
:1024200090938F070F900F900F90DF91CF911F9196
:102430000F91FF90EF90DF90CF90BF90AF909F9063
:102440008F907F906F905F904F903F9008951F9274
:102450000F920FB60F9211242F933F938F939F9358
:10246000AF93BF938091810390918203A0918303E6
:10247000B091840330916C0723E0230F2D3720F4B3
:102480000196A11DB11D05C026E8230F0296A11DCE
:10249000B11D20936C078093810390938203A093D6
:1024A0008303B093840380916D0790916E07A09190
:1024B0006F07B09170070196A11DB11D80936D0744
:1024C00090936E07A0936F07B0937007BF91AF9181
:1024D0009F918F913F912F910F900FBE0F901F9062
:1024E00018951F920F920FB60F9211242F933F93BE
:1024F0004F935F936F937F938F939F93AF93BF930C
:10250000EF93FF9385E893E00E94210EFF91EF91F6
:10251000BF91AF919F918F917F916F915F914F91FB
:102520003F912F910F900FBE0F901F9018951F9203
:102530000F920FB60F9211242F938F939F93EF93C7
:10254000FF93E0919503F09196038081E0919B03C6
:10255000F0919C0382FD12C0908180919E038F5F59
:102560008F7320919F03821751F0E0919E03F0E05A
:10257000EB57FC4F958F80939E0301C08081FF91A4
:10258000EF919F918F912F910F900FBE0F901F9001
:1025900018950F93CF93DF931092880310928703BF
:1025A00088EE93E0A0E0B0E08093890390938A03E3
:1025B000A0938B03B0938C0382E491E09093860305
:1025C0008093850385EC90E0909392038093910330
:1025D00084EC90E0909394038093930380EC90E0DC
:1025E000909396038093950381EC90E090939803E9
:1025F0008093970382EC90E090939A0380939903E1
:1026000086EC90E090939C0380939B0310929E0332
:1026100010929F031092A0031092A103CFEFC093DA
:102620002204109224041092230410922E0410927B
:102630002D048FEF9FEFDC018093290490932A04EF
:10264000A0932B04B0932C0406E02AE031E042E38F
:1026500050E06AE070E08CE997E00E946D0E08E0BF
:1026600022E031E045E050E061E070E08AE997E087
:102670000E946D0E84E591E09093990780939807EE
:102680000E944310C0932204CEE3D7E0CE010E9403
:10269000420E299687E0CB36D807C1F7DF91CF915C
:1026A0000F910895789484B5826084BD84B581606B
:1026B00084BD85B5826085BD85B5816085BD80910D
:1026C0006E00816080936E00109281008091810085
:1026D000826080938100809181008160809381007D
:1026E000809180008160809380008091B10084603F
:1026F0008093B1008091B00081608093B0008091A0
:102700007A00846080937A0080917A00826080935E
:102710007A0080917A00816080937A0080917A00BB
:10272000806880937A001092C100E0919503F09147
:10273000960382E08083E0919103F09192031082EE
:10274000E0919303F09194038FEC808310929D03AA
:10275000E0919903F0919A0386E08083E0919703DA
:10276000F0919803808180618083E0919703F091DC
:102770009803808188608083E0919703F0919803AB
:10278000808180688083E0919703F0919803808135
:102790008F7D80838AE997E00E94380D0E94C408EB
:1027A000F9CF8F929F92AF92BF92CF92DF92EF922A
:1027B000FF92CF93DF93EC01688179818A819B81BD
:1027C000611571058105910521F464E279ED8BE5D0
:1027D00097E02DE133EF41E050E00E942D144901D4
:1027E0005A019B01AC01A7EAB1E40E944C146B01B1
:1027F0007C01ACEEB4EFA50194010E945A14DC01F7
:10280000CB018C0D9D1DAE1DBF1DB7FF03C00197F1
:10281000A109B04888839983AA83BB83BC01CD01F9
:102820009F77DF91CF91FF90EF90DF90CF90BF9097
:10283000AF909F908F9008950E94D113089580E1EA
:1028400091E00E94D11308956093100170931101DB
:1028500080931201909313010895052E97FB1EF4A7
:1028600000940E94441457FD07D00E945F1407FC97
:1028700003D04EF40C944414509540953095219516
:102880003F4F4F4F5F4F089590958095709561959C
:102890007F4F8F4F9F4F08950E948114A59F900DE9
:1028A000B49F900DA49F800D911D11240895B7FF32
:1028B0000C944C140E944C14821B930B0895A1E2BB
:1028C0001A2EAA1BBB1BFD010DC0AA1FBB1FEE1FAA
:1028D000FF1FA217B307E407F50720F0A21BB30BF5
:1028E000E40BF50B661F771F881F991F1A9469F771
:1028F00060957095809590959B01AC01BD01CF01CD
:102900000895A29FB001B39FC001A39F700D811DC8
:102910001124911DB29F700D811D1124911D0895E8
:10292000DB018F939F930E944C14BF91AF91A29FA4
:10293000800D911DA39F900DB29F900D11240895BD
:1029400097FB072E16F4009407D077FD09D00E945C
:10295000BB1407FC05D03EF4909581959F4F0895D8
:10296000709561957F4F08950E948114B7FF089577
:10297000821B930B0895AA1BBB1B51E107C0AA1F22
:10298000BB1FA617B70710F0A61BB70B881F991F10
:102990005A95A9F780959095BC01CD010895EE0F49
:1029A000FF1F0590F491E02D099481E090E0F894E8
:0829B0000C94DA14F894FFCF37
:1029B80039050001020304050607070100000000AD
:1029C8000100000000000000830A380D000000002C
:1029D8004C0F4C0F4C0F8B0A870A840A000000002A
:1029E8003F0AFB09F9098B0A870AF609E50A00007C
:1029F80000004E0F130F8708950FB8089608AA080D
:102A080000000000830AAF0A00000000830A820A5F
:102A1800626C61636B000D0A00627562626C6573BB
:022A28000000AC
:00000001FF
